{"test/mocks/contracts/MockTestFacet.sol":{"MockTestFacet":{"abi":[{"anonymous":false,"inputs":[{"indexed":false,"internalType":"string","name":"message","type":"string"},{"indexed":false,"internalType":"uint256","name":"value","type":"uint256"}],"name":"TestEvent","type":"event"},{"inputs":[{"internalType":"uint256[]","name":"_numbers","type":"uint256[]"}],"name":"arrayFunction","outputs":[{"internalType":"uint256","name":"","type":"uint256"}],"stateMutability":"pure","type":"function"},{"inputs":[{"internalType":"uint256","name":"_number","type":"uint256"},{"internalType":"string","name":"_text","type":"string"},{"internalType":"bool","name":"_flag","type":"bool"}],"name":"complexFunction","outputs":[{"internalType":"bytes","name":"","type":"bytes"}],"stateMutability":"nonpayable","type":"function"},{"inputs":[],"name":"getTestValue","outputs":[{"internalType":"uint256","name":"","type":"uint256"}],"stateMutability":"view","type":"function"},{"inputs":[{"internalType":"address","name":"_user","type":"address"}],"name":"getUserValue","outputs":[{"internalType":"uint256","name":"","type":"uint256"}],"stateMutability":"view","type":"function"},{"inputs":[{"internalType":"uint256","name":"_input","type":"uint256"}],"name":"multiReturnFunction","outputs":[{"internalType":"uint256","name":"","type":"uint256"},{"internalType":"string","name":"","type":"string"},{"internalType":"bool","name":"","type":"bool"}],"stateMutability":"pure","type":"function"},{"inputs":[],"name":"payableFunction","outputs":[{"internalType":"uint256","name":"","type":"uint256"}],"stateMutability":"payable","type":"function"},{"inputs":[],"name":"revertingFunction","outputs":[],"stateMutability":"pure","type":"function"},{"inputs":[{"internalType":"uint256","name":"_value","type":"uint256"}],"name":"setUserValue","outputs":[],"stateMutability":"nonpayable","type":"function"},{"inputs":[{"components":[{"internalType":"uint256","name":"id","type":"uint256"},{"internalType":"string","name":"name","type":"string"},{"internalType":"bool","name":"active","type":"bool"}],"internalType":"struct MockTestFacet.TestStruct","name":"_struct","type":"tuple"}],"name":"structFunction","outputs":[{"internalType":"bool","name":"","type":"bool"}],"stateMutability":"pure","type":"function"},{"inputs":[],"name":"testFunction1","outputs":[{"internalType":"string","name":"","type":"string"}],"stateMutability":"pure","type":"function"},{"inputs":[{"internalType":"uint256","name":"_value","type":"uint256"}],"name":"testFunction2","outputs":[{"internalType":"uint256","name":"","type":"uint256"}],"stateMutability":"nonpayable","type":"function"},{"inputs":[{"internalType":"string","name":"_message","type":"string"}],"name":"testFunction3","outputs":[{"internalType":"string","name":"","type":"string"}],"stateMutability":"pure","type":"function"},{"inputs":[{"internalType":"uint256","name":"_input","type":"uint256"}],"name":"viewFunction","outputs":[{"internalType":"uint256","name":"","type":"uint256"}],"stateMutability":"pure","type":"function"}],"evm":{"bytecode":{"linkReferences":{},"object":"608060405234801561001057600080fd5b506109ce806100206000396000f3fe6080604052600436106100c25760003560e01c80639b8842771161007f578063af89eed011610059578063af89eed01461022a578063c84f59b41461024a578063d87362411461025f578063e02510801461027f57600080fd5b80639b884277146101bd578063a420e5d2146101df578063a78c849b146101f457600080fd5b80633c289b53146100c757806341dc4864146101185780634a6a74071461014657806355b05ff21461014e57806384c3b6cc1461016e5780639a58dc6d1461019d575b600080fd5b3480156100d357600080fd5b5060408051808201909152601681527515195cdd08199d5b98dd1a5bdb880c4818d85b1b195960521b60208201525b60405161010f91906105ef565b60405180910390f35b34801561012457600080fd5b50610138610133366004610609565b6102af565b60405190815260200161010f565b6101386102f4565b34801561015a57600080fd5b5061013861016936600461067e565b610350565b34801561017a57600080fd5b5061018e61018936600461067e565b61035d565b60405161010f93929190610697565b3480156101a957600080fd5b506101386101b836600461067e565b610399565b3480156101c957600080fd5b506101dd6101d836600461067e565b6103f4565b005b3480156101eb57600080fd5b50600054610138565b34801561020057600080fd5b5061013861020f3660046106c2565b6001600160a01b031660009081526001602052604090205490565b34801561023657600080fd5b50610102610245366004610749565b61044f565b34801561025657600080fd5b506101dd6104f4565b34801561026b57600080fd5b5061010261027a3660046107a7565b610540565b34801561028b57600080fd5b5061029f61029a3660046107e9565b61056c565b604051901515815260200161010f565b600080805b838110156102ea578484828181106102ce576102ce610824565b90506020020135826102e09190610850565b91506001016102b4565b5090505b92915050565b604080518181526017818301527f50617961626c652066756e6374696f6e2063616c6c656400000000000000000060608201523460208201529051600091600080516020610979833981519152919081900360800190a1503490565b60006102ee82602a610850565b600060608161036d846002610863565b6040805180820190915260078152667375636365737360c81b6020820152909590945060019350915050565b600081815560408051818152601481830152731d195cdd119d5b98dd1a5bdb8c8818d85b1b195960621b60608201526020810184905290516000805160206109798339815191529181900360800190a16102ee826002610863565b336000908152600160209081526040918290208390558151828152600e818401526d155cd95c881d985b1d59481cd95d60921b606082015290810183905290516000805160206109798339815191529181900360800190a150565b606081156104b35760008590556040516000805160206109798339815191529061047e908690869089906108a3565b60405180910390a18484848460405160200161049d94939291906108c7565b60405160208183030381529060405290506104ec565b604080516000602082018190526060928201839052600560808301526466616c736560d81b60a08301529181019190915260c00161049d565b949350505050565b60405162461bcd60e51b815260206004820152601c60248201527f546869732066756e6374696f6e20616c77617973207265766572747300000000604482015260640160405180910390fd5b606082826040516020016105559291906108f4565b604051602081830303815290604052905092915050565b600061057e6060830160408401610916565b801561058a5750813515155b80156102ee575060006105a06020840184610931565b90501192915050565b6000815180845260005b818110156105cf576020818501810151868301820152016105b3565b506000602082860101526020601f19601f83011685010191505092915050565b60208152600061060260208301846105a9565b9392505050565b6000806020838503121561061c57600080fd5b823567ffffffffffffffff8082111561063457600080fd5b818501915085601f83011261064857600080fd5b81358181111561065757600080fd5b8660208260051b850101111561066c57600080fd5b60209290920196919550909350505050565b60006020828403121561069057600080fd5b5035919050565b8381526060602082015260006106b060608301856105a9565b90508215156040830152949350505050565b6000602082840312156106d457600080fd5b81356001600160a01b038116811461060257600080fd5b60008083601f8401126106fd57600080fd5b50813567ffffffffffffffff81111561071557600080fd5b60208301915083602082850101111561072d57600080fd5b9250929050565b8035801515811461074457600080fd5b919050565b6000806000806060858703121561075f57600080fd5b84359350602085013567ffffffffffffffff81111561077d57600080fd5b610789878288016106eb565b909450925061079c905060408601610734565b905092959194509250565b600080602083850312156107ba57600080fd5b823567ffffffffffffffff8111156107d157600080fd5b6107dd858286016106eb565b90969095509350505050565b6000602082840312156107fb57600080fd5b813567ffffffffffffffff81111561081257600080fd5b82016060818503121561060257600080fd5b634e487b7160e01b600052603260045260246000fd5b634e487b7160e01b600052601160045260246000fd5b808201808211156102ee576102ee61083a565b80820281158282048414176102ee576102ee61083a565b81835281816020850137506000828201602090810191909152601f909101601f19169091010190565b6040815260006108b760408301858761087a565b9050826020830152949350505050565b8481526060602082015260006108e160608301858761087a565b9050821515604083015295945050505050565b65022b1b4379d160d51b81528183600683013760009101600601908152919050565b60006020828403121561092857600080fd5b61060282610734565b6000808335601e1984360301811261094857600080fd5b83018035915067ffffffffffffffff82111561096357600080fd5b60200191503681900382131561072d57600080fdfe8664091c72f432694e9c2916dc0b31a5ca242dce1b20da674b6f228f24c08abda26469706673582212204f822e9e9dc6a3c91bb140f84ddab355b5663b4eb93e66608ca074420f261a5a64736f6c63430008180033","opcodes":"PUSH1 0x80 PUSH1 0x40 MSTORE CALLVALUE DUP1 ISZERO PUSH2 0x10 JUMPI PUSH1 0x0 DUP1 REVERT JUMPDEST POP PUSH2 0x9CE DUP1 PUSH2 0x20 PUSH1 0x0 CODECOPY PUSH1 0x0 RETURN INVALID PUSH1 0x80 PUSH1 0x40 MSTORE PUSH1 0x4 CALLDATASIZE LT PUSH2 0xC2 JUMPI PUSH1 0x0 CALLDATALOAD PUSH1 0xE0 SHR DUP1 PUSH4 0x9B884277 GT PUSH2 0x7F JUMPI DUP1 PUSH4 0xAF89EED0 GT PUSH2 0x59 JUMPI DUP1 PUSH4 0xAF89EED0 EQ PUSH2 0x22A JUMPI DUP1 PUSH4 0xC84F59B4 EQ PUSH2 0x24A JUMPI DUP1 PUSH4 0xD8736241 EQ PUSH2 0x25F JUMPI DUP1 PUSH4 0xE0251080 EQ PUSH2 0x27F JUMPI PUSH1 0x0 DUP1 REVERT JUMPDEST DUP1 PUSH4 0x9B884277 EQ PUSH2 0x1BD JUMPI DUP1 PUSH4 0xA420E5D2 EQ PUSH2 0x1DF JUMPI DUP1 PUSH4 0xA78C849B EQ PUSH2 0x1F4 JUMPI PUSH1 0x0 DUP1 REVERT JUMPDEST DUP1 PUSH4 0x3C289B53 EQ PUSH2 0xC7 JUMPI DUP1 PUSH4 0x41DC4864 EQ PUSH2 0x118 JUMPI DUP1 PUSH4 0x4A6A7407 EQ PUSH2 0x146 JUMPI DUP1 PUSH4 0x55B05FF2 EQ PUSH2 0x14E JUMPI DUP1 PUSH4 0x84C3B6CC EQ PUSH2 0x16E JUMPI DUP1 PUSH4 0x9A58DC6D EQ PUSH2 0x19D JUMPI JUMPDEST PUSH1 0x0 DUP1 REVERT JUMPDEST CALLVALUE DUP1 ISZERO PUSH2 0xD3 JUMPI PUSH1 0x0 DUP1 REVERT JUMPDEST POP PUSH1 0x40 DUP1 MLOAD DUP1 DUP3 ADD SWAP1 SWAP2 MSTORE PUSH1 0x16 DUP2 MSTORE PUSH22 0x15195CDD08199D5B98DD1A5BDB880C4818D85B1B1959 PUSH1 0x52 SHL PUSH1 0x20 DUP3 ADD MSTORE JUMPDEST PUSH1 0x40 MLOAD PUSH2 0x10F SWAP2 SWAP1 PUSH2 0x5EF JUMP JUMPDEST PUSH1 0x40 MLOAD DUP1 SWAP2 SUB SWAP1 RETURN JUMPDEST CALLVALUE DUP1 ISZERO PUSH2 0x124 JUMPI PUSH1 0x0 DUP1 REVERT JUMPDEST POP PUSH2 0x138 PUSH2 0x133 CALLDATASIZE PUSH1 0x4 PUSH2 0x609 JUMP JUMPDEST PUSH2 0x2AF JUMP JUMPDEST PUSH1 0x40 MLOAD SWAP1 DUP2 MSTORE PUSH1 0x20 ADD PUSH2 0x10F JUMP JUMPDEST PUSH2 0x138 PUSH2 0x2F4 JUMP JUMPDEST CALLVALUE DUP1 ISZERO PUSH2 0x15A JUMPI PUSH1 0x0 DUP1 REVERT JUMPDEST POP PUSH2 0x138 PUSH2 0x169 CALLDATASIZE PUSH1 0x4 PUSH2 0x67E JUMP JUMPDEST PUSH2 0x350 JUMP JUMPDEST CALLVALUE DUP1 ISZERO PUSH2 0x17A JUMPI PUSH1 0x0 DUP1 REVERT JUMPDEST POP PUSH2 0x18E PUSH2 0x189 CALLDATASIZE PUSH1 0x4 PUSH2 0x67E JUMP JUMPDEST PUSH2 0x35D JUMP JUMPDEST PUSH1 0x40 MLOAD PUSH2 0x10F SWAP4 SWAP3 SWAP2 SWAP1 PUSH2 0x697 JUMP JUMPDEST CALLVALUE DUP1 ISZERO PUSH2 0x1A9 JUMPI PUSH1 0x0 DUP1 REVERT JUMPDEST POP PUSH2 0x138 PUSH2 0x1B8 CALLDATASIZE PUSH1 0x4 PUSH2 0x67E JUMP JUMPDEST PUSH2 0x399 JUMP JUMPDEST CALLVALUE DUP1 ISZERO PUSH2 0x1C9 JUMPI PUSH1 0x0 DUP1 REVERT JUMPDEST POP PUSH2 0x1DD PUSH2 0x1D8 CALLDATASIZE PUSH1 0x4 PUSH2 0x67E JUMP JUMPDEST PUSH2 0x3F4 JUMP JUMPDEST STOP JUMPDEST CALLVALUE DUP1 ISZERO PUSH2 0x1EB JUMPI PUSH1 0x0 DUP1 REVERT JUMPDEST POP PUSH1 0x0 SLOAD PUSH2 0x138 JUMP JUMPDEST CALLVALUE DUP1 ISZERO PUSH2 0x200 JUMPI PUSH1 0x0 DUP1 REVERT JUMPDEST POP PUSH2 0x138 PUSH2 0x20F CALLDATASIZE PUSH1 0x4 PUSH2 0x6C2 JUMP JUMPDEST PUSH1 0x1 PUSH1 0x1 PUSH1 0xA0 SHL SUB AND PUSH1 0x0 SWAP1 DUP2 MSTORE PUSH1 0x1 PUSH1 0x20 MSTORE PUSH1 0x40 SWAP1 KECCAK256 SLOAD SWAP1 JUMP JUMPDEST CALLVALUE DUP1 ISZERO PUSH2 0x236 JUMPI PUSH1 0x0 DUP1 REVERT JUMPDEST POP PUSH2 0x102 PUSH2 0x245 CALLDATASIZE PUSH1 0x4 PUSH2 0x749 JUMP JUMPDEST PUSH2 0x44F JUMP JUMPDEST CALLVALUE DUP1 ISZERO PUSH2 0x256 JUMPI PUSH1 0x0 DUP1 REVERT JUMPDEST POP PUSH2 0x1DD PUSH2 0x4F4 JUMP JUMPDEST CALLVALUE DUP1 ISZERO PUSH2 0x26B JUMPI PUSH1 0x0 DUP1 REVERT JUMPDEST POP PUSH2 0x102 PUSH2 0x27A CALLDATASIZE PUSH1 0x4 PUSH2 0x7A7 JUMP JUMPDEST PUSH2 0x540 JUMP JUMPDEST CALLVALUE DUP1 ISZERO PUSH2 0x28B JUMPI PUSH1 0x0 DUP1 REVERT JUMPDEST POP PUSH2 0x29F PUSH2 0x29A CALLDATASIZE PUSH1 0x4 PUSH2 0x7E9 JUMP JUMPDEST PUSH2 0x56C JUMP JUMPDEST PUSH1 0x40 MLOAD SWAP1 ISZERO ISZERO DUP2 MSTORE PUSH1 0x20 ADD PUSH2 0x10F JUMP JUMPDEST PUSH1 0x0 DUP1 DUP1 JUMPDEST DUP4 DUP2 LT ISZERO PUSH2 0x2EA JUMPI DUP5 DUP5 DUP3 DUP2 DUP2 LT PUSH2 0x2CE JUMPI PUSH2 0x2CE PUSH2 0x824 JUMP JUMPDEST SWAP1 POP PUSH1 0x20 MUL ADD CALLDATALOAD DUP3 PUSH2 0x2E0 SWAP2 SWAP1 PUSH2 0x850 JUMP JUMPDEST SWAP2 POP PUSH1 0x1 ADD PUSH2 0x2B4 JUMP JUMPDEST POP SWAP1 POP JUMPDEST SWAP3 SWAP2 POP POP JUMP JUMPDEST PUSH1 0x40 DUP1 MLOAD DUP2 DUP2 MSTORE PUSH1 0x17 DUP2 DUP4 ADD MSTORE PUSH32 0x50617961626C652066756E6374696F6E2063616C6C6564000000000000000000 PUSH1 0x60 DUP3 ADD MSTORE CALLVALUE PUSH1 0x20 DUP3 ADD MSTORE SWAP1 MLOAD PUSH1 0x0 SWAP2 PUSH1 0x0 DUP1 MLOAD PUSH1 0x20 PUSH2 0x979 DUP4 CODECOPY DUP2 MLOAD SWAP2 MSTORE SWAP2 SWAP1 DUP2 SWAP1 SUB PUSH1 0x80 ADD SWAP1 LOG1 POP CALLVALUE SWAP1 JUMP JUMPDEST PUSH1 0x0 PUSH2 0x2EE DUP3 PUSH1 0x2A PUSH2 0x850 JUMP JUMPDEST PUSH1 0x0 PUSH1 0x60 DUP2 PUSH2 0x36D DUP5 PUSH1 0x2 PUSH2 0x863 JUMP JUMPDEST PUSH1 0x40 DUP1 MLOAD DUP1 DUP3 ADD SWAP1 SWAP2 MSTORE PUSH1 0x7 DUP2 MSTORE PUSH7 0x73756363657373 PUSH1 0xC8 SHL PUSH1 0x20 DUP3 ADD MSTORE SWAP1 SWAP6 SWAP1 SWAP5 POP PUSH1 0x1 SWAP4 POP SWAP2 POP POP JUMP JUMPDEST PUSH1 0x0 DUP2 DUP2 SSTORE PUSH1 0x40 DUP1 MLOAD DUP2 DUP2 MSTORE PUSH1 0x14 DUP2 DUP4 ADD MSTORE PUSH20 0x1D195CDD119D5B98DD1A5BDB8C8818D85B1B1959 PUSH1 0x62 SHL PUSH1 0x60 DUP3 ADD MSTORE PUSH1 0x20 DUP2 ADD DUP5 SWAP1 MSTORE SWAP1 MLOAD PUSH1 0x0 DUP1 MLOAD PUSH1 0x20 PUSH2 0x979 DUP4 CODECOPY DUP2 MLOAD SWAP2 MSTORE SWAP2 DUP2 SWAP1 SUB PUSH1 0x80 ADD SWAP1 LOG1 PUSH2 0x2EE DUP3 PUSH1 0x2 PUSH2 0x863 JUMP JUMPDEST CALLER PUSH1 0x0 SWAP1 DUP2 MSTORE PUSH1 0x1 PUSH1 0x20 SWAP1 DUP2 MSTORE PUSH1 0x40 SWAP2 DUP3 SWAP1 KECCAK256 DUP4 SWAP1 SSTORE DUP2 MLOAD DUP3 DUP2 MSTORE PUSH1 0xE DUP2 DUP5 ADD MSTORE PUSH14 0x155CD95C881D985B1D59481CD95D PUSH1 0x92 SHL PUSH1 0x60 DUP3 ADD MSTORE SWAP1 DUP2 ADD DUP4 SWAP1 MSTORE SWAP1 MLOAD PUSH1 0x0 DUP1 MLOAD PUSH1 0x20 PUSH2 0x979 DUP4 CODECOPY DUP2 MLOAD SWAP2 MSTORE SWAP2 DUP2 SWAP1 SUB PUSH1 0x80 ADD SWAP1 LOG1 POP JUMP JUMPDEST PUSH1 0x60 DUP2 ISZERO PUSH2 0x4B3 JUMPI PUSH1 0x0 DUP6 SWAP1 SSTORE PUSH1 0x40 MLOAD PUSH1 0x0 DUP1 MLOAD PUSH1 0x20 PUSH2 0x979 DUP4 CODECOPY DUP2 MLOAD SWAP2 MSTORE SWAP1 PUSH2 0x47E SWAP1 DUP7 SWAP1 DUP7 SWAP1 DUP10 SWAP1 PUSH2 0x8A3 JUMP JUMPDEST PUSH1 0x40 MLOAD DUP1 SWAP2 SUB SWAP1 LOG1 DUP5 DUP5 DUP5 DUP5 PUSH1 0x40 MLOAD PUSH1 0x20 ADD PUSH2 0x49D SWAP5 SWAP4 SWAP3 SWAP2 SWAP1 PUSH2 0x8C7 JUMP JUMPDEST PUSH1 0x40 MLOAD PUSH1 0x20 DUP2 DUP4 SUB SUB DUP2 MSTORE SWAP1 PUSH1 0x40 MSTORE SWAP1 POP PUSH2 0x4EC JUMP JUMPDEST PUSH1 0x40 DUP1 MLOAD PUSH1 0x0 PUSH1 0x20 DUP3 ADD DUP2 SWAP1 MSTORE PUSH1 0x60 SWAP3 DUP3 ADD DUP4 SWAP1 MSTORE PUSH1 0x5 PUSH1 0x80 DUP4 ADD MSTORE PUSH5 0x66616C7365 PUSH1 0xD8 SHL PUSH1 0xA0 DUP4 ADD MSTORE SWAP2 DUP2 ADD SWAP2 SWAP1 SWAP2 MSTORE PUSH1 0xC0 ADD PUSH2 0x49D JUMP JUMPDEST SWAP5 SWAP4 POP POP POP POP JUMP JUMPDEST PUSH1 0x40 MLOAD PUSH3 0x461BCD PUSH1 0xE5 SHL DUP2 MSTORE PUSH1 0x20 PUSH1 0x4 DUP3 ADD MSTORE PUSH1 0x1C PUSH1 0x24 DUP3 ADD MSTORE PUSH32 0x546869732066756E6374696F6E20616C77617973207265766572747300000000 PUSH1 0x44 DUP3 ADD MSTORE PUSH1 0x64 ADD PUSH1 0x40 MLOAD DUP1 SWAP2 SUB SWAP1 REVERT JUMPDEST PUSH1 0x60 DUP3 DUP3 PUSH1 0x40 MLOAD PUSH1 0x20 ADD PUSH2 0x555 SWAP3 SWAP2 SWAP1 PUSH2 0x8F4 JUMP JUMPDEST PUSH1 0x40 MLOAD PUSH1 0x20 DUP2 DUP4 SUB SUB DUP2 MSTORE SWAP1 PUSH1 0x40 MSTORE SWAP1 POP SWAP3 SWAP2 POP POP JUMP JUMPDEST PUSH1 0x0 PUSH2 0x57E PUSH1 0x60 DUP4 ADD PUSH1 0x40 DUP5 ADD PUSH2 0x916 JUMP JUMPDEST DUP1 ISZERO PUSH2 0x58A JUMPI POP DUP2 CALLDATALOAD ISZERO ISZERO JUMPDEST DUP1 ISZERO PUSH2 0x2EE JUMPI POP PUSH1 0x0 PUSH2 0x5A0 PUSH1 0x20 DUP5 ADD DUP5 PUSH2 0x931 JUMP JUMPDEST SWAP1 POP GT SWAP3 SWAP2 POP POP JUMP JUMPDEST PUSH1 0x0 DUP2 MLOAD DUP1 DUP5 MSTORE PUSH1 0x0 JUMPDEST DUP2 DUP2 LT ISZERO PUSH2 0x5CF JUMPI PUSH1 0x20 DUP2 DUP6 ADD DUP2 ADD MLOAD DUP7 DUP4 ADD DUP3 ADD MSTORE ADD PUSH2 0x5B3 JUMP JUMPDEST POP PUSH1 0x0 PUSH1 0x20 DUP3 DUP7 ADD ADD MSTORE PUSH1 0x20 PUSH1 0x1F NOT PUSH1 0x1F DUP4 ADD AND DUP6 ADD ADD SWAP2 POP POP SWAP3 SWAP2 POP POP JUMP JUMPDEST PUSH1 0x20 DUP2 MSTORE PUSH1 0x0 PUSH2 0x602 PUSH1 0x20 DUP4 ADD DUP5 PUSH2 0x5A9 JUMP JUMPDEST SWAP4 SWAP3 POP POP POP JUMP JUMPDEST PUSH1 0x0 DUP1 PUSH1 0x20 DUP4 DUP6 SUB SLT ISZERO PUSH2 0x61C JUMPI PUSH1 0x0 DUP1 REVERT JUMPDEST DUP3 CALLDATALOAD PUSH8 0xFFFFFFFFFFFFFFFF DUP1 DUP3 GT ISZERO PUSH2 0x634 JUMPI PUSH1 0x0 DUP1 REVERT JUMPDEST DUP2 DUP6 ADD SWAP2 POP DUP6 PUSH1 0x1F DUP4 ADD SLT PUSH2 0x648 JUMPI PUSH1 0x0 DUP1 REVERT JUMPDEST DUP2 CALLDATALOAD DUP2 DUP2 GT ISZERO PUSH2 0x657 JUMPI PUSH1 0x0 DUP1 REVERT JUMPDEST DUP7 PUSH1 0x20 DUP3 PUSH1 0x5 SHL DUP6 ADD ADD GT ISZERO PUSH2 0x66C JUMPI PUSH1 0x0 DUP1 REVERT JUMPDEST PUSH1 0x20 SWAP3 SWAP1 SWAP3 ADD SWAP7 SWAP2 SWAP6 POP SWAP1 SWAP4 POP POP POP POP JUMP JUMPDEST PUSH1 0x0 PUSH1 0x20 DUP3 DUP5 SUB SLT ISZERO PUSH2 0x690 JUMPI PUSH1 0x0 DUP1 REVERT JUMPDEST POP CALLDATALOAD SWAP2 SWAP1 POP JUMP JUMPDEST DUP4 DUP2 MSTORE PUSH1 0x60 PUSH1 0x20 DUP3 ADD MSTORE PUSH1 0x0 PUSH2 0x6B0 PUSH1 0x60 DUP4 ADD DUP6 PUSH2 0x5A9 JUMP JUMPDEST SWAP1 POP DUP3 ISZERO ISZERO PUSH1 0x40 DUP4 ADD MSTORE SWAP5 SWAP4 POP POP POP POP JUMP JUMPDEST PUSH1 0x0 PUSH1 0x20 DUP3 DUP5 SUB SLT ISZERO PUSH2 0x6D4 JUMPI PUSH1 0x0 DUP1 REVERT JUMPDEST DUP2 CALLDATALOAD PUSH1 0x1 PUSH1 0x1 PUSH1 0xA0 SHL SUB DUP2 AND DUP2 EQ PUSH2 0x602 JUMPI PUSH1 0x0 DUP1 REVERT JUMPDEST PUSH1 0x0 DUP1 DUP4 PUSH1 0x1F DUP5 ADD SLT PUSH2 0x6FD JUMPI PUSH1 0x0 DUP1 REVERT JUMPDEST POP DUP2 CALLDATALOAD PUSH8 0xFFFFFFFFFFFFFFFF DUP2 GT ISZERO PUSH2 0x715 JUMPI PUSH1 0x0 DUP1 REVERT JUMPDEST PUSH1 0x20 DUP4 ADD SWAP2 POP DUP4 PUSH1 0x20 DUP3 DUP6 ADD ADD GT ISZERO PUSH2 0x72D JUMPI PUSH1 0x0 DUP1 REVERT JUMPDEST SWAP3 POP SWAP3 SWAP1 POP JUMP JUMPDEST DUP1 CALLDATALOAD DUP1 ISZERO ISZERO DUP2 EQ PUSH2 0x744 JUMPI PUSH1 0x0 DUP1 REVERT JUMPDEST SWAP2 SWAP1 POP JUMP JUMPDEST PUSH1 0x0 DUP1 PUSH1 0x0 DUP1 PUSH1 0x60 DUP6 DUP8 SUB SLT ISZERO PUSH2 0x75F JUMPI PUSH1 0x0 DUP1 REVERT JUMPDEST DUP5 CALLDATALOAD SWAP4 POP PUSH1 0x20 DUP6 ADD CALLDATALOAD PUSH8 0xFFFFFFFFFFFFFFFF DUP2 GT ISZERO PUSH2 0x77D JUMPI PUSH1 0x0 DUP1 REVERT JUMPDEST PUSH2 0x789 DUP8 DUP3 DUP9 ADD PUSH2 0x6EB JUMP JUMPDEST SWAP1 SWAP5 POP SWAP3 POP PUSH2 0x79C SWAP1 POP PUSH1 0x40 DUP7 ADD PUSH2 0x734 JUMP JUMPDEST SWAP1 POP SWAP3 SWAP6 SWAP2 SWAP5 POP SWAP3 POP JUMP JUMPDEST PUSH1 0x0 DUP1 PUSH1 0x20 DUP4 DUP6 SUB SLT ISZERO PUSH2 0x7BA JUMPI PUSH1 0x0 DUP1 REVERT JUMPDEST DUP3 CALLDATALOAD PUSH8 0xFFFFFFFFFFFFFFFF DUP2 GT ISZERO PUSH2 0x7D1 JUMPI PUSH1 0x0 DUP1 REVERT JUMPDEST PUSH2 0x7DD DUP6 DUP3 DUP7 ADD PUSH2 0x6EB JUMP JUMPDEST SWAP1 SWAP7 SWAP1 SWAP6 POP SWAP4 POP POP POP POP JUMP JUMPDEST PUSH1 0x0 PUSH1 0x20 DUP3 DUP5 SUB SLT ISZERO PUSH2 0x7FB JUMPI PUSH1 0x0 DUP1 REVERT JUMPDEST DUP2 CALLDATALOAD PUSH8 0xFFFFFFFFFFFFFFFF DUP2 GT ISZERO PUSH2 0x812 JUMPI PUSH1 0x0 DUP1 REVERT JUMPDEST DUP3 ADD PUSH1 0x60 DUP2 DUP6 SUB SLT ISZERO PUSH2 0x602 JUMPI PUSH1 0x0 DUP1 REVERT JUMPDEST PUSH4 0x4E487B71 PUSH1 0xE0 SHL PUSH1 0x0 MSTORE PUSH1 0x32 PUSH1 0x4 MSTORE PUSH1 0x24 PUSH1 0x0 REVERT JUMPDEST PUSH4 0x4E487B71 PUSH1 0xE0 SHL PUSH1 0x0 MSTORE PUSH1 0x11 PUSH1 0x4 MSTORE PUSH1 0x24 PUSH1 0x0 REVERT JUMPDEST DUP1 DUP3 ADD DUP1 DUP3 GT ISZERO PUSH2 0x2EE JUMPI PUSH2 0x2EE PUSH2 0x83A JUMP JUMPDEST DUP1 DUP3 MUL DUP2 ISZERO DUP3 DUP3 DIV DUP5 EQ OR PUSH2 0x2EE JUMPI PUSH2 0x2EE PUSH2 0x83A JUMP JUMPDEST DUP2 DUP4 MSTORE DUP2 DUP2 PUSH1 0x20 DUP6 ADD CALLDATACOPY POP PUSH1 0x0 DUP3 DUP3 ADD PUSH1 0x20 SWAP1 DUP2 ADD SWAP2 SWAP1 SWAP2 MSTORE PUSH1 0x1F SWAP1 SWAP2 ADD PUSH1 0x1F NOT AND SWAP1 SWAP2 ADD ADD SWAP1 JUMP JUMPDEST PUSH1 0x40 DUP2 MSTORE PUSH1 0x0 PUSH2 0x8B7 PUSH1 0x40 DUP4 ADD DUP6 DUP8 PUSH2 0x87A JUMP JUMPDEST SWAP1 POP DUP3 PUSH1 0x20 DUP4 ADD MSTORE SWAP5 SWAP4 POP POP POP POP JUMP JUMPDEST DUP5 DUP2 MSTORE PUSH1 0x60 PUSH1 0x20 DUP3 ADD MSTORE PUSH1 0x0 PUSH2 0x8E1 PUSH1 0x60 DUP4 ADD DUP6 DUP8 PUSH2 0x87A JUMP JUMPDEST SWAP1 POP DUP3 ISZERO ISZERO PUSH1 0x40 DUP4 ADD MSTORE SWAP6 SWAP5 POP POP POP POP POP JUMP JUMPDEST PUSH6 0x22B1B4379D1 PUSH1 0xD5 SHL DUP2 MSTORE DUP2 DUP4 PUSH1 0x6 DUP4 ADD CALLDATACOPY PUSH1 0x0 SWAP2 ADD PUSH1 0x6 ADD SWAP1 DUP2 MSTORE SWAP2 SWAP1 POP JUMP JUMPDEST PUSH1 0x0 PUSH1 0x20 DUP3 DUP5 SUB SLT ISZERO PUSH2 0x928 JUMPI PUSH1 0x0 DUP1 REVERT JUMPDEST PUSH2 0x602 DUP3 PUSH2 0x734 JUMP JUMPDEST PUSH1 0x0 DUP1 DUP4 CALLDATALOAD PUSH1 0x1E NOT DUP5 CALLDATASIZE SUB ADD DUP2 SLT PUSH2 0x948 JUMPI PUSH1 0x0 DUP1 REVERT JUMPDEST DUP4 ADD DUP1 CALLDATALOAD SWAP2 POP PUSH8 0xFFFFFFFFFFFFFFFF DUP3 GT ISZERO PUSH2 0x963 JUMPI PUSH1 0x0 DUP1 REVERT JUMPDEST PUSH1 0x20 ADD SWAP2 POP CALLDATASIZE DUP2 SWAP1 SUB DUP3 SGT ISZERO PUSH2 0x72D JUMPI PUSH1 0x0 DUP1 REVERT INVALID DUP7 PUSH5 0x91C72F432 PUSH10 0x4E9C2916DC0B31A5CA24 0x2D 0xCE SHL KECCAK256 0xDA PUSH8 0x4B6F228F24C08ABD LOG2 PUSH5 0x6970667358 0x22 SLT KECCAK256 0x4F DUP3 0x2E SWAP15 SWAP14 0xC6 LOG3 0xC9 SHL 0xB1 BLOCKHASH 0xF8 0x4D 0xDA 0xB3 SSTORE 0xB5 PUSH7 0x3B4EB93E66608C LOG0 PUSH21 0x420F261A5A64736F6C634300081800330000000000 "},"methodIdentifiers":{"arrayFunction(uint256[])":"41dc4864","complexFunction(uint256,string,bool)":"af89eed0","getTestValue()":"a420e5d2","getUserValue(address)":"a78c849b","multiReturnFunction(uint256)":"84c3b6cc","payableFunction()":"4a6a7407","revertingFunction()":"c84f59b4","setUserValue(uint256)":"9b884277","structFunction((uint256,string,bool))":"e0251080","testFunction1()":"3c289b53","testFunction2(uint256)":"9a58dc6d","testFunction3(string)":"d8736241","viewFunction(uint256)":"55b05ff2"}}}}}