{
  "_format": "hh-sol-artifact-1",
  "contractName": "MockDiamond",
  "sourceName": "test/mocks/contracts/MockDiamond.sol",
  "abi": [
    {
      "inputs": [],
      "stateMutability": "nonpayable",
      "type": "constructor"
    },
    {
      "anonymous": false,
      "inputs": [
        {
          "components": [
            {
              "internalType": "address",
              "name": "facetAddress",
              "type": "address"
            },
            {
              "internalType": "enum MockDiamond.FacetCutAction",
              "name": "action",
              "type": "uint8"
            },
            {
              "internalType": "bytes4[]",
              "name": "functionSelectors",
              "type": "bytes4[]"
            }
          ],
          "indexed": false,
          "internalType": "struct MockDiamond.FacetCut[]",
          "name": "_diamondCut",
          "type": "tuple[]"
        },
        {
          "indexed": false,
          "internalType": "address",
          "name": "_init",
          "type": "address"
        },
        {
          "indexed": false,
          "internalType": "bytes",
          "name": "_calldata",
          "type": "bytes"
        }
      ],
      "name": "DiamondCut",
      "type": "event"
    },
    {
      "stateMutability": "payable",
      "type": "fallback"
    },
    {
      "inputs": [
        {
          "components": [
            {
              "internalType": "address",
              "name": "facetAddress",
              "type": "address"
            },
            {
              "internalType": "enum MockDiamond.FacetCutAction",
              "name": "action",
              "type": "uint8"
            },
            {
              "internalType": "bytes4[]",
              "name": "functionSelectors",
              "type": "bytes4[]"
            }
          ],
          "internalType": "struct MockDiamond.FacetCut[]",
          "name": "_diamondCut",
          "type": "tuple[]"
        },
        {
          "internalType": "address",
          "name": "_init",
          "type": "address"
        },
        {
          "internalType": "bytes",
          "name": "_calldata",
          "type": "bytes"
        }
      ],
      "name": "diamondCut",
      "outputs": [],
      "stateMutability": "nonpayable",
      "type": "function"
    },
    {
      "inputs": [
        {
          "internalType": "bytes4",
          "name": "_functionSelector",
          "type": "bytes4"
        }
      ],
      "name": "facetAddress",
      "outputs": [
        {
          "internalType": "address",
          "name": "facetAddress_",
          "type": "address"
        }
      ],
      "stateMutability": "view",
      "type": "function"
    },
    {
      "inputs": [],
      "name": "facetAddresses",
      "outputs": [
        {
          "internalType": "address[]",
          "name": "facetAddresses_",
          "type": "address[]"
        }
      ],
      "stateMutability": "view",
      "type": "function"
    },
    {
      "inputs": [
        {
          "internalType": "address",
          "name": "_facet",
          "type": "address"
        }
      ],
      "name": "facetFunctionSelectors",
      "outputs": [
        {
          "internalType": "bytes4[]",
          "name": "facetFunctionSelectors_",
          "type": "bytes4[]"
        }
      ],
      "stateMutability": "view",
      "type": "function"
    },
    {
      "inputs": [],
      "name": "facets",
      "outputs": [
        {
          "components": [
            {
              "internalType": "address",
              "name": "facetAddress",
              "type": "address"
            },
            {
              "internalType": "bytes4[]",
              "name": "functionSelectors",
              "type": "bytes4[]"
            }
          ],
          "internalType": "struct MockDiamond.Facet[]",
          "name": "facets_",
          "type": "tuple[]"
        }
      ],
      "stateMutability": "view",
      "type": "function"
    },
    {
      "inputs": [],
      "name": "owner",
      "outputs": [
        {
          "internalType": "address",
          "name": "",
          "type": "address"
        }
      ],
      "stateMutability": "view",
      "type": "function"
    },
    {
      "inputs": [
        {
          "internalType": "bytes4",
          "name": "_interfaceId",
          "type": "bytes4"
        }
      ],
      "name": "supportsInterface",
      "outputs": [
        {
          "internalType": "bool",
          "name": "",
          "type": "bool"
        }
      ],
      "stateMutability": "pure",
      "type": "function"
    },
    {
      "stateMutability": "payable",
      "type": "receive"
    }
  ],
  "bytecode": "0x608060405234801561001057600080fd5b50600480546001600160a01b031916331790556116cf806100326000396000f3fe6080604052600436106100745760003560e01c80637a0ed6271161004e5780637a0ed6271461018d5780638da5cb5b146101af578063adfca15e146101e7578063cdffacc6146102145761007b565b806301ffc9a7146101165780631f931c1c1461014b57806352ef6b2c1461016b5761007b565b3661007b57005b600080356001600160e01b0319168152602081905260409020546001600160a01b0316806100f05760405162461bcd60e51b815260206004820152601760248201527f46756e6374696f6e20646f6573206e6f7420657869737400000000000000000060448201526064015b60405180910390fd5b3660008037600080366000845af43d6000803e80801561010f573d6000f35b3d6000fd5b005b34801561012257600080fd5b50610136610131366004610ff1565b610254565b60405190151581526020015b60405180910390f35b34801561015757600080fd5b50610114610166366004611073565b6102a6565b34801561017757600080fd5b50610180610514565b6040516101429190611125565b34801561019957600080fd5b506101a2610576565b6040516101429190611172565b3480156101bb57600080fd5b506004546101cf906001600160a01b031681565b6040516001600160a01b039091168152602001610142565b3480156101f357600080fd5b50610207610202366004611225565b61068c565b6040516101429190611240565b34801561022057600080fd5b506101cf61022f366004610ff1565b6001600160e01b0319166000908152602081905260409020546001600160a01b031690565b60006001600160e01b031982166301ffc9a760e01b148061028557506001600160e01b031982166307e4c70760e21b145b806102a057506001600160e01b031982166348e2b09360e01b145b92915050565b6004546001600160a01b0316331461030a5760405162461bcd60e51b815260206004820152602160248201527f4f6e6c79206f776e65722063616e2063616c6c20746869732066756e6374696f6044820152603760f91b60648201526084016100e7565b60005b848110156103eb57600086868381811061032957610329611282565b905060200281019061033b9190611298565b61034490611337565b905060008160200151600281111561035e5761035e61140e565b0361037a5761037581600001518260400151610832565b6103d8565b6001816020015160028111156103925761039261140e565b036103a95761037581600001518260400151610b1c565b6002816020015160028111156103c1576103c161140e565b036103d8576103d881600001518260400151610d19565b50806103e38161143a565b91505061030d565b507f8faa70878671ccd212d20771b795c50af8fd3ff6cf27f4bde57e5d4de0aeb67385858585856040516104239594939291906114c4565b60405180910390a16001600160a01b0383161561050d57600080846001600160a01b031684846040516104579291906115f1565b600060405180830381855af49150503d8060008114610492576040519150601f19603f3d011682016040523d82523d6000602084013e610497565b606091505b50915091508161050a578051156104c2578060405162461bcd60e51b81526004016100e79190611601565b60405162461bcd60e51b815260206004820152601d60248201527f4469616d6f6e6420696e697469616c697a6174696f6e206661696c656400000060448201526064016100e7565b50505b5050505050565b6060600380548060200260200160405190810160405280929190818152602001828054801561056c57602002820191906000526020600020905b81546001600160a01b0316815260019091019060200180831161054e575b5050505050905090565b6003546060908067ffffffffffffffff811115610595576105956112b8565b6040519080825280602002602001820160405280156105db57816020015b6040805180820190915260008152606060208201528152602001906001900390816105b35790505b50915060005b81811015610687576000600382815481106105fe576105fe611282565b9060005260206000200160009054906101000a90046001600160a01b031690508084838151811061063157610631611282565b60209081029190910101516001600160a01b0390911690526106528161068c565b84838151811061066457610664611282565b60200260200101516020018190525050808061067f9061143a565b9150506105e1565b505090565b600154606090600090815b8181101561072757846001600160a01b0316600080600184815481106106bf576106bf611282565b6000918252602080832060088304015460079092166004026101000a90910460e01b6001600160e01b03191683528201929092526040019020546001600160a01b03160361071557826107118161143a565b9350505b8061071f8161143a565b915050610697565b508167ffffffffffffffff811115610741576107416112b8565b60405190808252806020026020018201604052801561076a578160200160208202803683370190505b5092506000805b828110156108295760006001828154811061078e5761078e611282565b6000918252602080832060088304015460079092166004026101000a90910460e01b6001600160e01b031981168352908290526040909120549091506001600160a01b0388811691160361081657808684815181106107ef576107ef611282565b6001600160e01b031990921660209283029190910190910152826108128161143a565b9350505b50806108218161143a565b915050610771565b50505050919050565b60008151116108795760405162461bcd60e51b8152602060048201526013602482015272139bc81cd95b1958dd1bdc9cc81d1bc8185919606a1b60448201526064016100e7565b6001600160a01b0382166108df5760405162461bcd60e51b815260206004820152602760248201527f4164642066756e6374696f6e3a2066616365742063616e2774206265206164646044820152667265737328302960c81b60648201526084016100e7565b6001546001600160a01b038381166000908152600260205260409020541661099c576040805180820182526001600160a01b0380861680835261ffff808616602080860191825260008481526002909152958620945185549151909216600160a01b026001600160b01b03199091169190931617919091179091556003805460018101825592527fc2575a0e9e593c00f959f8c92f12db2869c3395a3b0502d05e2516446f71f85b90910180546001600160a01b03191690911790555b60005b8251811015610b165760008382815181106109bc576109bc611282565b6020908102919091018101516001600160e01b031981166000908152918290526040909120549091506001600160a01b03168015610a3c5760405162461bcd60e51b815260206004820152601760248201527f46756e6374696f6e20616c72656164792065786973747300000000000000000060448201526064016100e7565b6040805180820182526001600160a01b03808916825261ffff80881660208085019182526001600160e01b03198816600090815290819052948520935184549151909216600160a01b026001600160b01b031990911691909216171790556001805480820182559152600881047fb10e2d527612073b26eecdfd717e6a320cf44b4afac2b0732d9fcbe2b7fa0cf601805460e085901c60046007909416939093026101000a92830263ffffffff909302191691909117905583610afe8161164f565b94505050508080610b0e9061143a565b91505061099f565b50505050565b6000815111610b6d5760405162461bcd60e51b815260206004820152601760248201527f4e6f2073656c6563746f727320746f207265706c61636500000000000000000060448201526064016100e7565b6001600160a01b038216610bd75760405162461bcd60e51b815260206004820152602b60248201527f5265706c6163652066756e6374696f6e3a2066616365742063616e277420626560448201526a206164647265737328302960a81b60648201526084016100e7565b60005b8151811015610d14576000828281518110610bf757610bf7611282565b6020908102919091018101516001600160e01b031981166000908152918290526040909120549091506001600160a01b031680610c6f5760405162461bcd60e51b8152602060048201526016602482015275119d5b98dd1a5bdb88191bd95cdb89dd08195e1a5cdd60521b60448201526064016100e7565b846001600160a01b0316816001600160a01b031603610cd05760405162461bcd60e51b815260206004820152601c60248201527f5265706c6163652066756e6374696f6e3a2073616d652066616365740000000060448201526064016100e7565b506001600160e01b031916600090815260208190526040902080546001600160a01b0319166001600160a01b03851617905580610d0c8161143a565b915050610bda565b505050565b6000815111610d635760405162461bcd60e51b81526020600482015260166024820152754e6f2073656c6563746f727320746f2072656d6f766560501b60448201526064016100e7565b60005b8151811015610d14576000828281518110610d8357610d83611282565b6020908102919091018101516001600160e01b0319811660009081528083526040908190208151808301909252546001600160a01b038116808352600160a01b90910461ffff169382019390935290925090610e1a5760405162461bcd60e51b8152602060048201526016602482015275119d5b98dd1a5bdb88191bd95cdb89dd08195e1a5cdd60521b60448201526064016100e7565b846001600160a01b031681600001516001600160a01b031614610e7f5760405162461bcd60e51b815260206004820152601c60248201527f52656d6f76652066756e6374696f6e3a2077726f6e672066616365740000000060448201526064016100e7565b60208101516001805461ffff90921691600091610e9b91611670565b9050808214610f5857600060018281548110610eb957610eb9611282565b90600052602060002090600891828204019190066004029054906101000a900460e01b90508060018481548110610ef257610ef2611282565b600091825260208083206008830401805463ffffffff60079094166004026101000a938402191660e09590951c929092029390931790556001600160e01b031992909216825281905260409020805461ffff60a01b1916600160a01b61ffff8516021790555b6001805480610f6957610f69611683565b60008281526020808220600860001990940193840401805463ffffffff600460078716026101000a0219169055919092556001600160e01b03199095168152938490525050604090912080546001600160b01b03191690555080610fcc8161143a565b915050610d66565b80356001600160e01b031981168114610fec57600080fd5b919050565b60006020828403121561100357600080fd5b61100c82610fd4565b9392505050565b80356001600160a01b0381168114610fec57600080fd5b60008083601f84011261103c57600080fd5b50813567ffffffffffffffff81111561105457600080fd5b60208301915083602082850101111561106c57600080fd5b9250929050565b60008060008060006060868803121561108b57600080fd5b853567ffffffffffffffff808211156110a357600080fd5b818801915088601f8301126110b757600080fd5b8135818111156110c657600080fd5b8960208260051b85010111156110db57600080fd5b602083019750809650506110f160208901611013565b9450604088013591508082111561110757600080fd5b506111148882890161102a565b969995985093965092949392505050565b6020808252825182820181905260009190848201906040850190845b818110156111665783516001600160a01b031683529284019291840191600101611141565b50909695505050505050565b60006020808301818452808551808352604092508286019150828160051b8701018488016000805b8481101561121657898403603f19018652825180516001600160a01b03168552880151888501889052805188860181905290890190839060608701905b808310156112015783516001600160e01b0319168252928b019260019290920191908b01906111d7565b50978a0197955050509187019160010161119a565b50919998505050505050505050565b60006020828403121561123757600080fd5b61100c82611013565b6020808252825182820181905260009190848201906040850190845b818110156111665783516001600160e01b0319168352928401929184019160010161125c565b634e487b7160e01b600052603260045260246000fd5b60008235605e198336030181126112ae57600080fd5b9190910192915050565b634e487b7160e01b600052604160045260246000fd5b6040516060810167ffffffffffffffff811182821017156112f1576112f16112b8565b60405290565b604051601f8201601f1916810167ffffffffffffffff81118282101715611320576113206112b8565b604052919050565b803560038110610fec57600080fd5b60006060823603121561134957600080fd5b6113516112ce565b61135a83611013565b81526020611369818501611328565b81830152604084013567ffffffffffffffff8082111561138857600080fd5b9085019036601f83011261139b57600080fd5b8135818111156113ad576113ad6112b8565b8060051b91506113be8483016112f7565b81815291830184019184810190368411156113d857600080fd5b938501935b838510156113fd576113ee85610fd4565b825293850193908501906113dd565b604087015250939695505050505050565b634e487b7160e01b600052602160045260246000fd5b634e487b7160e01b600052601160045260246000fd5b60006001820161144c5761144c611424565b5060010190565b8183526000602080850194508260005b85811015611490576001600160e01b031961147d83610fd4565b1687529582019590820190600101611463565b509495945050505050565b81835281816020850137506000828201602090810191909152601f909101601f19169091010190565b6060808252818101869052600090600560808085019089831b8601018a855b8b8110156115be57878303607f190184528135368e9003605e1901811261150957600080fd5b8d016001600160a01b0361151c82611013565b168452602061152c818301611328565b6003811061154a57634e487b7160e01b600052602160045260246000fd5b8582015260408281013536849003601e1901811261156757600080fd5b90920181810192903567ffffffffffffffff81111561158557600080fd5b80891b360384131561159657600080fd5b89828801526115a88a88018286611453565b97830197965050509290920191506001016114e3565b50506001600160a01b038916602087015285810360408701526115e281888a61149b565b9b9a5050505050505050505050565b8183823760009101908152919050565b600060208083528351808285015260005b8181101561162e57858101830151858201604001528201611612565b506000604082860101526040601f19601f8301168501019250505092915050565b600061ffff80831681810361166657611666611424565b6001019392505050565b818103818111156102a0576102a0611424565b634e487b7160e01b600052603160045260246000fdfea264697066735822122025a65ef4a03c5f29f5f9495aa8772552ca5c41e35bd736418ec4bfc21dddc46c64736f6c63430008110033",
  "linkReferences": {},
  "deployedLinkReferences": {}
}