{
  "_format": "hh-sol-artifact-1",
  "contractName": "MockTestFacet",
  "sourceName": "test/mocks/contracts/MockTestFacet.sol",
  "abi": [
    {
      "anonymous": false,
      "inputs": [
        {
          "indexed": false,
          "internalType": "string",
          "name": "message",
          "type": "string"
        },
        {
          "indexed": false,
          "internalType": "uint256",
          "name": "value",
          "type": "uint256"
        }
      ],
      "name": "TestEvent",
      "type": "event"
    },
    {
      "inputs": [
        {
          "internalType": "uint256[]",
          "name": "_numbers",
          "type": "uint256[]"
        }
      ],
      "name": "arrayFunction",
      "outputs": [
        {
          "internalType": "uint256",
          "name": "",
          "type": "uint256"
        }
      ],
      "stateMutability": "pure",
      "type": "function"
    },
    {
      "inputs": [
        {
          "internalType": "uint256",
          "name": "_number",
          "type": "uint256"
        },
        {
          "internalType": "string",
          "name": "_text",
          "type": "string"
        },
        {
          "internalType": "bool",
          "name": "_flag",
          "type": "bool"
        }
      ],
      "name": "complexFunction",
      "outputs": [
        {
          "internalType": "bytes",
          "name": "",
          "type": "bytes"
        }
      ],
      "stateMutability": "nonpayable",
      "type": "function"
    },
    {
      "inputs": [],
      "name": "getTestValue",
      "outputs": [
        {
          "internalType": "uint256",
          "name": "",
          "type": "uint256"
        }
      ],
      "stateMutability": "view",
      "type": "function"
    },
    {
      "inputs": [
        {
          "internalType": "address",
          "name": "_user",
          "type": "address"
        }
      ],
      "name": "getUserValue",
      "outputs": [
        {
          "internalType": "uint256",
          "name": "",
          "type": "uint256"
        }
      ],
      "stateMutability": "view",
      "type": "function"
    },
    {
      "inputs": [
        {
          "internalType": "uint256",
          "name": "_input",
          "type": "uint256"
        }
      ],
      "name": "multiReturnFunction",
      "outputs": [
        {
          "internalType": "uint256",
          "name": "",
          "type": "uint256"
        },
        {
          "internalType": "string",
          "name": "",
          "type": "string"
        },
        {
          "internalType": "bool",
          "name": "",
          "type": "bool"
        }
      ],
      "stateMutability": "pure",
      "type": "function"
    },
    {
      "inputs": [],
      "name": "payableFunction",
      "outputs": [
        {
          "internalType": "uint256",
          "name": "",
          "type": "uint256"
        }
      ],
      "stateMutability": "payable",
      "type": "function"
    },
    {
      "inputs": [],
      "name": "revertingFunction",
      "outputs": [],
      "stateMutability": "pure",
      "type": "function"
    },
    {
      "inputs": [
        {
          "internalType": "uint256",
          "name": "_value",
          "type": "uint256"
        }
      ],
      "name": "setUserValue",
      "outputs": [],
      "stateMutability": "nonpayable",
      "type": "function"
    },
    {
      "inputs": [
        {
          "components": [
            {
              "internalType": "uint256",
              "name": "id",
              "type": "uint256"
            },
            {
              "internalType": "string",
              "name": "name",
              "type": "string"
            },
            {
              "internalType": "bool",
              "name": "active",
              "type": "bool"
            }
          ],
          "internalType": "struct MockTestFacet.TestStruct",
          "name": "_struct",
          "type": "tuple"
        }
      ],
      "name": "structFunction",
      "outputs": [
        {
          "internalType": "bool",
          "name": "",
          "type": "bool"
        }
      ],
      "stateMutability": "pure",
      "type": "function"
    },
    {
      "inputs": [],
      "name": "testFunction1",
      "outputs": [
        {
          "internalType": "string",
          "name": "",
          "type": "string"
        }
      ],
      "stateMutability": "pure",
      "type": "function"
    },
    {
      "inputs": [
        {
          "internalType": "uint256",
          "name": "_value",
          "type": "uint256"
        }
      ],
      "name": "testFunction2",
      "outputs": [
        {
          "internalType": "uint256",
          "name": "",
          "type": "uint256"
        }
      ],
      "stateMutability": "nonpayable",
      "type": "function"
    },
    {
      "inputs": [
        {
          "internalType": "string",
          "name": "_message",
          "type": "string"
        }
      ],
      "name": "testFunction3",
      "outputs": [
        {
          "internalType": "string",
          "name": "",
          "type": "string"
        }
      ],
      "stateMutability": "pure",
      "type": "function"
    },
    {
      "inputs": [
        {
          "internalType": "uint256",
          "name": "_input",
          "type": "uint256"
        }
      ],
      "name": "viewFunction",
      "outputs": [
        {
          "internalType": "uint256",
          "name": "",
          "type": "uint256"
        }
      ],
      "stateMutability": "pure",
      "type": "function"
    }
  ],
  "bytecode": "0x608060405234801561001057600080fd5b506109ce806100206000396000f3fe6080604052600436106100c25760003560e01c80639b8842771161007f578063af89eed011610059578063af89eed01461022a578063c84f59b41461024a578063d87362411461025f578063e02510801461027f57600080fd5b80639b884277146101bd578063a420e5d2146101df578063a78c849b146101f457600080fd5b80633c289b53146100c757806341dc4864146101185780634a6a74071461014657806355b05ff21461014e57806384c3b6cc1461016e5780639a58dc6d1461019d575b600080fd5b3480156100d357600080fd5b5060408051808201909152601681527515195cdd08199d5b98dd1a5bdb880c4818d85b1b195960521b60208201525b60405161010f91906105ef565b60405180910390f35b34801561012457600080fd5b50610138610133366004610609565b6102af565b60405190815260200161010f565b6101386102f4565b34801561015a57600080fd5b5061013861016936600461067e565b610350565b34801561017a57600080fd5b5061018e61018936600461067e565b61035d565b60405161010f93929190610697565b3480156101a957600080fd5b506101386101b836600461067e565b610399565b3480156101c957600080fd5b506101dd6101d836600461067e565b6103f4565b005b3480156101eb57600080fd5b50600054610138565b34801561020057600080fd5b5061013861020f3660046106c2565b6001600160a01b031660009081526001602052604090205490565b34801561023657600080fd5b50610102610245366004610749565b61044f565b34801561025657600080fd5b506101dd6104f4565b34801561026b57600080fd5b5061010261027a3660046107a7565b610540565b34801561028b57600080fd5b5061029f61029a3660046107e9565b61056c565b604051901515815260200161010f565b600080805b838110156102ea578484828181106102ce576102ce610824565b90506020020135826102e09190610850565b91506001016102b4565b5090505b92915050565b604080518181526017818301527f50617961626c652066756e6374696f6e2063616c6c656400000000000000000060608201523460208201529051600091600080516020610979833981519152919081900360800190a1503490565b60006102ee82602a610850565b600060608161036d846002610863565b6040805180820190915260078152667375636365737360c81b6020820152909590945060019350915050565b600081815560408051818152601481830152731d195cdd119d5b98dd1a5bdb8c8818d85b1b195960621b60608201526020810184905290516000805160206109798339815191529181900360800190a16102ee826002610863565b336000908152600160209081526040918290208390558151828152600e818401526d155cd95c881d985b1d59481cd95d60921b606082015290810183905290516000805160206109798339815191529181900360800190a150565b606081156104b35760008590556040516000805160206109798339815191529061047e908690869089906108a3565b60405180910390a18484848460405160200161049d94939291906108c7565b60405160208183030381529060405290506104ec565b604080516000602082018190526060928201839052600560808301526466616c736560d81b60a08301529181019190915260c00161049d565b949350505050565b60405162461bcd60e51b815260206004820152601c60248201527f546869732066756e6374696f6e20616c77617973207265766572747300000000604482015260640160405180910390fd5b606082826040516020016105559291906108f4565b604051602081830303815290604052905092915050565b600061057e6060830160408401610916565b801561058a5750813515155b80156102ee575060006105a06020840184610931565b90501192915050565b6000815180845260005b818110156105cf576020818501810151868301820152016105b3565b506000602082860101526020601f19601f83011685010191505092915050565b60208152600061060260208301846105a9565b9392505050565b6000806020838503121561061c57600080fd5b823567ffffffffffffffff8082111561063457600080fd5b818501915085601f83011261064857600080fd5b81358181111561065757600080fd5b8660208260051b850101111561066c57600080fd5b60209290920196919550909350505050565b60006020828403121561069057600080fd5b5035919050565b8381526060602082015260006106b060608301856105a9565b90508215156040830152949350505050565b6000602082840312156106d457600080fd5b81356001600160a01b038116811461060257600080fd5b60008083601f8401126106fd57600080fd5b50813567ffffffffffffffff81111561071557600080fd5b60208301915083602082850101111561072d57600080fd5b9250929050565b8035801515811461074457600080fd5b919050565b6000806000806060858703121561075f57600080fd5b84359350602085013567ffffffffffffffff81111561077d57600080fd5b610789878288016106eb565b909450925061079c905060408601610734565b905092959194509250565b600080602083850312156107ba57600080fd5b823567ffffffffffffffff8111156107d157600080fd5b6107dd858286016106eb565b90969095509350505050565b6000602082840312156107fb57600080fd5b813567ffffffffffffffff81111561081257600080fd5b82016060818503121561060257600080fd5b634e487b7160e01b600052603260045260246000fd5b634e487b7160e01b600052601160045260246000fd5b808201808211156102ee576102ee61083a565b80820281158282048414176102ee576102ee61083a565b81835281816020850137506000828201602090810191909152601f909101601f19169091010190565b6040815260006108b760408301858761087a565b9050826020830152949350505050565b8481526060602082015260006108e160608301858761087a565b9050821515604083015295945050505050565b65022b1b4379d160d51b81528183600683013760009101600601908152919050565b60006020828403121561092857600080fd5b61060282610734565b6000808335601e1984360301811261094857600080fd5b83018035915067ffffffffffffffff82111561096357600080fd5b60200191503681900382131561072d57600080fdfe8664091c72f432694e9c2916dc0b31a5ca242dce1b20da674b6f228f24c08abda26469706673582212204f822e9e9dc6a3c91bb140f84ddab355b5663b4eb93e66608ca074420f261a5a64736f6c63430008180033",
  "linkReferences": {},
  "deployedLinkReferences": {}
}